:020000040800F2
:10000000E81702204503000851380008A93200080B
:100010004D380008F50E0008F754000800000000F5
:100020000000000000000000000000008D02000839
:100030003D1D000800000000E1020008B14A000870
:1000400069030008690300086903000869030008E0
:1000500069030008690300086903000869030008D0
:1000600069030008690300086903000869030008C0
:1000700069030008690300086903000869030008B0
:1000800069030008690300086903000869030008A0
:10009000F90E0008690300086903000869230008D5
:1000A0006903000869030008690300086903000880
:1000B00069030008294B0008690300086903000868
:1000C0006903000869030008690300086903000860
:1000D000690300085D51000869030008690300080E
:1000E0006903000869030008690300086903000840
:1000F0006903000869030008690300086903000830
:10010000690300086903000869030008690300081F
:100110006903000869030008354C000869030008FA
:1001200069030008690300086903000869030008FF
:1001300069030008690300086903000869030008EF
:100140003910000869030008690300086903000802
:10015000D119000869030008690300086903000851
:1001600069030008690300086903000869030008BF
:100170006903000869030008690300080000000023
:10018000690300086903000869030008690300089F
:10019000690300086903000869030008690300088F
:1001A00000000000000000006903000800F002F8F1
:1001B00000F05CF80AA090E8000C82448344AAF1A5
:1001C0000107DA4501D100F051F8AFF2090EBAE8A3
:1001D0000F0013F0010F18BFFB1A43F0010318477B
:1001E0002CCC00004CCC00000A444FF0000C10F85E
:1001F000013B13F0070408BF10F8014B1D1108BFA5
:1002000010F8015B641E05D010F8016B641E01F844
:10021000016BF9D113F0080F1EBF10F8014BAD1C94
:100220000C1B09D16D1E58BF01F801CBFAD505E0B2
:1002300014F8016B01F8016B6D1EF9D59142D6D30C
:10024000704700000023002400250026103A28BF34
:1002500078C1FBD8520728BF30C148BF0B60704738
:100260001FB50CF009F81FBD10B510BD00F01CFA49
:100270001146FFF7F5FF08F0CFFA00F03AFA03B4A1
:10028000FFF7F2FF03BC00F09FFA00002A4B196849
:100290000868B0E8F04F80F30988BFF36F8F4FF024
:1002A000000080F3118870470000000006480068D5
:1002B000006880F3088862B661B6BFF34F8FBFF362
:1002C0006F8F00DF00BF00BF08ED00E0DFF80C001B
:1002D000016841F470010160704700BF88ED00E0E3
:1002E000EFF30980BFF36F8F134B1A681EF0100FE6
:1002F00008BF20ED108A20E9F04F106008B44FF0DD
:10030000500080F31188BFF34F8FBFF36F8F0AF057
:10031000C1FB4FF0000080F3118808BC1968086821
:10032000B0E8F04F1EF0100F08BFB0EC108A80F359
:100330000988BFF36F8F704724000020EFF305801A
:10034000704700000C48016841F4700101600B48DF
:1003500080470B480047FEE7FEE7FEE7FEE7FEE7C3
:10036000FEE7FEE7FEE7FEE7FEE700000548064978
:10037000044A064B7047000088ED00E0C14A0008BF
:10038000AD010008E8130220E8170220E81302205C
:100390009FED1A1AF5EE000A40EE010ABDEEE00AE2
:1003A000F5EEC00A10EE100AF1EE10FA38BF401E4A
:1003B00000EE100A1349F7EE001AB8EEC00A30EE4C
:1003C000C00ADFED0F0A20EE200AFCEEC00A10EE94
:1003D000900AC0F3080000EE900A01EB8000F8EEEE
:1003E000600A90ED011A70EE600A90ED000A71EE5D
:1003F000E01A21EE800A00EE810A704783F9223E5E
:100400000000004408C60008DFED190AB5EEC00A76
:1004100060EE200ABDEEE01A11EE100AF1EE10FABD
:1004200038BF401E00EE100A1349F7EE001AB8EE6E
:10043000C00A30EEC00ADFED0F0A60EE200ABCEE03
:10044000E00A10EE100AC0F3080000EE100A01EBFB
:100450008000B8EE400A90ED011A70EEC00A90EDEF
:10046000000A71EEE01A21EE800A00EE810A704760
:1004700083F9223E0000004408C6000810B5431C62
:1004800002E010F8011B71B18107FAD14FF001327F
:1004900002C88C1A8C4314EAC211F9D0C01A0A0699
:1004A00003D0C01E10BDC01A10BD0A0401D0801EAA
:1004B00010BD0902FCD0401E10BD032A40F230805E
:1004C00010F0030C00F0158011F8013BBCF1020F95
:1004D000624498BF11F801CB00F8013B38BF11F816
:1004E000013BA2F1040298BF00F801CB38BF00F82D
:1004F000013B11F0030300F02580083AC0F00880AA
:1005000051F8043B083A51F804CBA0E80810F5E78D
:10051000121D5CBF51F8043B40F8043BAFF3008070
:10052000D20724BF11F8013B11F801CB48BF11F8E5
:10053000012B24BF00F8013B00F801CB48BF00F8B5
:10054000012B704710B5203AC0F00B80B1E818506D
:10055000203AA0E81850B1E81850A0E81850BFF4AD
:10056000F5AF5FEA027C24BFB1E81850A0E818504C
:1005700044BF18C918C0BDE810405FEA827C24BFA0
:1005800051F8043B40F8043B08BF7047D20728BF2E
:1005900031F8023B48BF11F8012B28BF20F8023B7D
:1005A00048BF00F8012B704702F0FF0343EA032223
:1005B00042EA024200F037B84FF0000200B513469D
:1005C00094469646203922BFA0E80C50A0E80C5073
:1005D000B1F12001BFF4F7AF090728BFA0E80C5024
:1005E00048BF0CC05DF804EB890028BF40F8042B1D
:1005F00008BF704748BF20F8022B11F0804F18BF8A
:1006000000F8012B704770477047704710B500F035
:100610002BF8006810BD10B5044600F025F8046002
:1006200010BD4FF000020429C0F0128010F0030C3E
:100630003FF4C4AFCCF1040CBCF1020F18BF00F8BA
:10064000012BA8BF20F8022BA1EB0C01FFF7B6BFCE
:100650005FEAC17C24BF00F8012B00F8012B48BFE2
:1006600000F8012B704700000048704784130220F7
:100670001FB584B000200A9C06AB04AA02A900940E
:10068000AFF3008018B1DDE9020108B010BD0348E6
:10069000204000F037F800200146F6E70000207CFB
:1006A00000487047841302207546FFF7F9FFAE46F5
:1006B00005006946534620F00700854618B020B56E
:1006C000FFF754FEBDE820404FF000064FF0000752
:1006D0004FF000084FF0000B21F00701AC46ACE8EA
:1006E000C009ACE8C009ACE8C009ACE8C0098D4657
:1006F000704710B50446AFF300802046BDE81040B7
:10070000FFF7BDBD10B500F009F8BDE81040AFF32C
:100710000080002801D000F057B8704710B50228BB
:1007200003D0410103D50DA112E0002010BD01014D
:1007300001D50FA10CE0C10001D511A108E0810095
:1007400001D512A104E0400001D513A100E0002171
:1007500015A000F03FF8012010BD0000496E766141
:100760006C6964204F7065726174696F6E0000007F
:10077000446976696465204279205A65726F000089
:100780004F766572666C6F7700000000556E646589
:1007900072666C6F77000000496E65786163742043
:1007A000526573756C7400005349474650453A20B2
:1007B00041726974686D65746963206578636570FA
:1007C00074696F6E3A20000001491820ABBEFEE745
:1007D0002600020070B505460C460A2000E06D1C9C
:1007E00000F011F835B128780028F8D102E0641C37
:1007F00000F009F814B120780028F8D1BDE8704065
:100800000A20AFF3008008B569468DF80000032088
:10081000ABBE08BD7047CA430260704721B1826811
:1008200042F00102826003E0826822F001028260ED
:10083000704700000021084A1168084A1140D0E9B9
:1008400000231A4383681A43C3681A431143044AB6
:10085000C2F804137047000004230140E030FCFF9D
:10086000002001400146C86C80B27047024600205B
:1008700013680B400BB1012000E00020704700001E
:1008800030B50246002000235068104C20400D79FE
:100890000C6844EA05242043506090680C4C2040CA
:1008A000D1E903542C438D682C434D7944EA450427
:1008B00020439060D06A20F470000C7D641EE4B286
:1008C000234340EA0350D06230BD0000FFFEFFFC2E
:1008D000FDF7FFC0F0B504460D4600200021092DAC
:1008E00011DDE068A5F10A0606EB4607072606FAC1
:1008F00007F18843A5F10A0606EB460603FA06F15E
:100900000843E0600CE0206905EB4507072606FA7E
:1009100007F1884305EB450603FA06F10843206119
:10092000072A0FDA606B561E06EB86071F2606FAAB
:1009300007F18843561E06EB860605FA06F10843C2
:10094000606322E00D2A0FDA206BD61F06EB8607C4
:100950001F2606FA07F18843D61F06EB860605FA1E
:1009600006F10843206310E0E06AA2F10D0606EBF1
:1009700086071F2606FA07F18843A2F10D0606EB4B
:10098000860605FA06F10843E062F0BD816841F091
:10099000804181607047000038B10849096841F41E
:1009A0000001074AC2F8041306E00449096821F46B
:1009B0000001034AC2F804137047000004230140F9
:1009C0000020014010B52DED028BB0EE408AB0EE54
:1009D000480A04F0E1FDBDEC028B10BD10B52DED11
:1009E000028BB0EE408AF0EE608AF0EE680AB0EE5C
:1009F000480A04F067FEBDEC028B10BD10B52DED6A
:100A0000028BB0EE408AB0EE480AFFF7C1FCBDECA5
:100A1000028B10BDF0EE400AF5EEC00AF1EE10FABE
:100A200002DDB0EE600A7047B1EE600AFBE700003D
:100A300018B19FED020A80ED000A70470000000027
:100A400018B19FED020A80ED000A7047DF8FB441B4
:100A500070B52DED0C8B84B006460C4615469FED07
:100A6000990AF0EE408A9FED970AB0EE409A9FED0A
:100A7000950AF0EE40BA9FED930AF0EE409A9FED92
:100A8000910AB0EE40AA0EB104B11DB904B0BDEC9C
:100A90000C8B70BD8C48FFF7CBFF8C48FFF7D0FF65
:100AA0008A48D0ED000A9FED8A1A60EE810AB0EE06
:100AB000600A00F039F9F0EE408A28EEA80AF0EE5C
:100AC000408A8248D0ED000AB0EE001A60EE810A3A
:100AD0009FED7F1A60EE810AB0EE600A00F024F903
:100AE000B0EE409A29EE090AB0EE409ADFED790A9D
:100AF000B7EE000A00EEA80ADFED770A00EEC90A99
:100B0000DFED760A20EE200A754880ED000A6E4877
:100B100090ED000ADFED730A80EE201AB7EE000AAE
:100B200031EE000A20EE000A6D48D0ED000A80EE9A
:100B3000801A6D4880ED001A94ED000AB5EEC00AE7
:100B4000F1EE10FA0DD194ED010AB5EEC00AF1EE06
:100B500010FA06D194ED020AB5EEC00AF1EE10FAD1
:100B600046D09FED580AB0EE408A002001900290D6
:100B70000390D4ED000A60EEA00A94ED011AD4EDC2
:100B8000011A41EE210A94ED021AD4ED021A41EE47
:100B9000210AB0EE600A00F0A9F8B0EE408A94EDA8
:100BA000000A20EE080A8DED010A94ED010A20EEFC
:100BB000080A8DED020A94ED020A20EE080A8DED76
:100BC000030ADDED010AF1EE600AB0EE600AFFF7FC
:100BD000F9FEF0EE409A9DED031AF0EE410A9DED0C
:100BE000021AB0EE410AFFF7F9FEB0EE40AA07E0A4
:100BF0009FED340AF0EE409A9FED320AB0EE40AA23
:100C000095ED000AB5EEC00AF1EE10FA0DD195EDA2
:100C1000010AB5EEC00AF1EE10FA06D195ED020A0E
:100C2000B5EEC00AF1EE10FA3CD0B0EE690A00F061
:100C30007BF8B0EE408AB0EE690AFFF7DFFEB0EE57
:100C400040DAB0EE4A0A00F06FF8F0EE40AAB0EEDB
:100C50004A0AFFF7D3FEB0EE40BA28EE2A0AD5EDD5
:100C6000010A20EE200AD5ED000A0DEE200A68EEFA
:100C70000B0A95ED021A00EE810AB0EE40CA95ED1E
:100C8000010A20EE0B0AD5ED020A0AEEE00AF0EEA8
:100C900040CAF0EE6C0AB0EE4C0AFFF79FFEF0EE91
:100CA00040BA03E09FED070AF0EE40BAB0EE4A1AF0
:100CB000F0EE690AB0EE6B0A304605F011F800BF9D
:100CC000E4E60000000000003002002034020020B2
:100CD00035FA8E3CC1BFAD3B9DF8C5362F7C1C411B
:100CE00038020020506CC24A3C020020F0EE400A5C
:100CF000F6EE001A60EEA11AB0EE611AB0EE600ACC
:100D000010EE100A0749A1EB600000EE100A21EE78
:100D1000002AF7EE081A42EE401A61EE801AB0EE91
:100D2000610A7047DF59375F10B52DED028BB0EEC9
:100D3000408AB0EE480AFFF767FBBDEC028B10BD9E
:100D40002DE9F0412DED028B9AB00546B0EE408AB8
:100D50000E46174698460020179018901990149048
:100D6000159016904DB146B13FB1B8F1000F04D0C7
:100D7000B5EEC08AF1EE10FA05D100201AB0BDEC34
:100D8000028BBDE8F08196ED000A8DED170A96ED15
:100D9000010A8DED180A96ED020A8DED190A97EDFC
:100DA000000A8DED140A97ED010A8DED150A97EDF5
:100DB000020A8DED160A17AA14A9284604F0E2FDCE
:100DC000402104A8FFF7F8FB00200090019002905A
:100DD0000390002417A904A809F090FA00BF30E09E
:100DE00004A800EB041090ED000AD5ED000A20EEF7
:100DF000200A04A800EB0410D0ED010A95ED011AB9
:100E000000EE810A04A800EB0410D0ED020A95ED73
:100E1000021A00EE810A04A800EB0410D0ED030AC8
:100E200095ED031A00EE810A20EE080AF0EE000AA2
:100E300080EE201A684600EB840080ED001A601CEA
:100E4000C4B2042CCCDB002410E005EB840090ED50
:100E5000000A684600EB8400D0ED000A30EE200A5C
:100E600005EB840080ED000A601CC4B2042CECDBAE
:100E7000284608F027FD012080E738B54FF4407080
:100E800002F024FD4FF47A7006F09AFA07F036FC6F
:100E900009F0C4F907F09CFE06F002FC5A2147F263
:100EA000305004F0D3FF07F0F7FB5A214EF66020D4
:100EB00003F0D2FE002005231A460121009000F025
:100EC00033F8002005231A460121009000F0CCF8E9
:100ED000002408E0204607F0AFFE40F2C52006F0EF
:100EE000CDFA601CC4B2042CF4DB08F071FD05F0EF
:100EF00025FA38BD00BFFEE710B50221084800F012
:100F00006DFA58B10221064800F090F9054A002117
:100F1000034800F086FB034800F08EFC10BD000083
:100F200000640040880602202DE9F0418AB00446A2
:100F30000D4616461F46DDF840800121082002F0CC
:100F40001DFE0121480602F029FE0121480602F09B
:100F500035FE00214FF0007002F030FE03200890B3
:100F600002208DF8240000208DF8260003208DF843
:100F7000250001208DF8270008A92D4801F02EFF3B
:100F8000092200212A4801F071FF09220121284885
:100F900001F06CFF00208DF81A0001208DF81B0075
:100FA00000208DF81C008DF81D008DF81E008DF8B6
:100FB0001F008DF816808DF817408DF818608DF899
:100FC0001950ADF8147005A91A4800F0A0FA0020D5
:100FD0008DF80E008DF80F0001208DF81000002014
:100FE000ADF80400ADF80600ADF80800ADF80A0051
:100FF000ADF80C0001208DF8110001A800F06AF98D
:10100000012202210B4800F079FA14208DF800002B
:1010100004208DF8010000208DF8020001208DF8D9
:101020000300684602F016FC00200AB0BDE8F0811B
:10103000000C02400064004010B50221084800F096
:10104000CDF958B10221064800F0F0F8054A002118
:10105000034800F0E6FA034800F0EEFB10BD000084
:10106000006800409C0602202DE9F0418AB0044649
:101070000D4616461F46DDF840800121022002F091
:101080007DFD0121880602F089FD0121880602F01C
:1010900095FD00214FF0806002F090FD4FF440502C
:1010A000089002208DF8240000208DF826000320EF
:1010B0008DF8250001208DF8270008A92D4801F0A2
:1010C0008DFE09220C212B4801F0D0FE09220D21B2
:1010D000284801F0CBFE00208DF81A0001208DF881
:1010E0001B0000208DF81C008DF81D008DF81E00DF
:1010F0008DF81F008DF816808DF817408DF8186058
:101100008DF81950ADF8147005A91B4800F0FFF9CF
:101110000E208DF80E0000208DF80F0001208DF8B4
:1011200010000020ADF80400ADF80600ADF808008E
:10113000ADF80A00ADF80C0001208DF8110001A8EF
:1011400000F0C8F8012202210B4800F0D7F9402036
:101150008DF8000004208DF8010000208DF80200B9
:1011600001208DF80300684602F074FB00200AB0ED
:10117000BDE8F0810004024000680040F0B585B091
:1011800004460D4616461F464FF40070009000209E
:101190008DF808008DF8090008208DF80A00200A53
:1011A0008DF80B00E1B28DF80C10290A8DF80D10A6
:1011B000E9B28DF80E10310A8DF80F10F1B28DF8EA
:1011C0001010390A8DF81110F9B28DF81210694615
:1011D000024800F09EFA05B0F0BD00000064004037
:1011E0002DE9F04104460D4616461F4640F2FF1019
:1011F0000C49086000200872487208208872200A92
:10120000C87208460473290A41738573310AC17391
:101210000674390A417487740146034800F079FA6C
:10122000BDE8F0817406022000640040B1F5007F43
:101230003AD00FDC202928D006DC01291CD0042953
:101240001DD0082940D11DE0402921D0B1F5807F73
:101250003AD126E0B1F5004F31D006DCB1F5806F10
:1012600025D0B1F5006F2FD124E0B1F5803F12D029
:10127000B1F5003F28D111E0154A826025E008222F
:10128000C26022E01022C2601FE0082202611CE05E
:101290001022026119E00822426016E0102242602A
:1012A00013E00422426010E0042242600DE00422B8
:1012B00042600AE0002282610422426005E00022CE
:1012C00082610422426000E000BF00BF704700005E
:1012D0000101010010B50021837A012202FA03F115
:1012E0003D4A126842F001023B4B1A603A4A1C32F6
:1012F00012688A43384B1C331A60027BCAB9364ADB
:101300000C3212688A43344B0C331A604288C3880B
:1013100042EA0343304A4032847A42F83430028849
:10132000838842EA03432C4A4032847A02EBC402A7
:101330005360027B012A19D1274A0C3212680A43F2
:10134000254B0C331A604288038842EA0343224A41
:101350004032847A42F83430C288838842EA0343B8
:101360001D4A4032847A02EBC4025360C27A3AB911
:10137000194A121D12688A43174B1B1D1A6006E09A
:10138000154A121D12680A43134B1B1D1A6002896D
:1013900032B9114A143212688A430F4B14331A605F
:1013A0000289012A06D10C4A143212680A430A4BF8
:1013B00014331A60427B012A06D1074A1C32126894
:1013C0000A43054B1C331A60034A126822F00102DB
:1013D000014B1A6010BD00000066004070B5044665
:1013E0000D46002660692840002871D0B5F5807F41
:1013F0005CD010DC082D35D006DC012D20D0022D6C
:1014000024D0042D72D127E0102D31D0202D35D0DD
:10141000402D6BD138E0B5F5004F60D009DCB5F553
:10142000007F49D0B5F5806F4CD0B5F5006F5DD128
:101430004FE0B5F5803F2DD0B5F5003F56D12FE0F8
:10144000A0682D4900F0BAFA064651E0E068032191
:1014500000F0B4FA06464BE0E068082100F0AEFA6E
:10146000064645E0E068102100F0A8FA06463FE095
:101470002069032100F0A2FA064639E0206908211C
:1014800000F09CFA064633E02069102100F096FA3D
:1014900006462DE06068082100F090FA064627E035
:1014A0006068102100F08AFA064621E0A069012157
:1014B00000F084FA06461BE0A069022100F07EFAE3
:1014C000064615E0A069042100F078FA06460FE010
:1014D0000FE0A069702100F071FA064608E060682C
:1014E000042100F06BFA064602E0FFE7002600BF89
:1014F00000E00026304670BD010101001AB14369C9
:101500000B43436102E043698B434361704730B54D
:10151000024600200023146824F0020414601468BA
:1015200044F00104146000E05B1C546804F0010402
:101530001CB94FF6FF74A342F6D1546804F00104BD
:101540000CB900206CE08C79012C04D1146844F0B3
:101550008004146003E0146824F080041460CC79E3
:10156000012C04D1146844F04004146003E01468B2
:1015700024F0400414600C7A012C04D1146844F067
:101580002004146003E0146824F0200414604C7AF2
:10159000012C04D1146844F01004146003E01468B2
:1015A00024F0100414608C7A012C04D1146844F0E7
:1015B0000804146003E0146824F008041460CC7A72
:1015C000012C04D1146844F00404146003E014688E
:1015D00024F0040414608C78A407CD7844EA0564F0
:1015E0000D7944EA05444D7944EA05540D886D1E91
:1015F0002C43D461146824F001041460002300E03B
:101600005B1C546804F001041CB14FF6FF74A34244
:10161000F6D1546804F001040CB1002000E0012070
:1016200030BD10B500F5D87303EB01131B6803F050
:1016300004031372137A53B900F5D87303EB011343
:101640001B6840F2FF7404EA5353136009E000F58D
:10165000D87303EB01131B686FF0604404EAD303F3
:10166000536000F5D87303EB01131B6803F002030A
:10167000537200F5D87303EB01135B6803F00F039B
:10168000937200F5D87303EB01135B681B0AD374E4
:1016900000F5D87303EB01139B68D37200F5D87380
:1016A00003EB01139B681C0A147300F5D87303EB5A
:1016B00001139B681C0C547300F5D87303EB0113E2
:1016C0009B681B0E937300F5D87303EB0113DB6863
:1016D000D37300F5D87303EB0113DB681C0A147491
:1016E00000F5D87303EB0113DB681C0C547400F590
:1016F000D87303EB0113DB681B0E937421B9C36825
:1017000043F02003C36003E0036943F02003036157
:1017100010BD10B502460020936803F08063B3F15A
:10172000806F00D110E0936803F00063B3F1006FA5
:1017300001D1012008E0936803F08053B3F1805F8A
:1017400001D1022000E00420042874D002F5C07307
:1017500003EB00131B6803F0010402F5C07303EBF5
:1017600000131C600B7A7BB94B7A0C8843EA445314
:1017700002F5C07404EB00142468234302F5C0741E
:1017800004EB0014236010E00B7A4C6843EAC403B6
:101790004C7A234302F5C07404EB001424682343FD
:1017A00002F5C07404EB001423608B7A03F00F037E
:1017B0008B7202F5C07303EB00135B6823F00F0418
:1017C00002F5C07303EB00135C6002F5C07303EB1A
:1017D00000135B688C7A234302F5C07404EB001499
:1017E00063608B7B1C064B7B44EA03440B7B44EA1F
:1017F0000323CC7A234302F5C07404EB0014A360E6
:101800008B7C1C064B7C44EA03440B7C44EA032398
:10181000CC7B234302F5C07404EB0014E36002F5B3
:10182000C07303EB00131B6843F0010402F5C0739F
:1018300003EB00131C6010BD10B504462068A0F235
:10184000012007287ED2DFE800F061626364042390
:1018500042005548008800B253490881207BE17A54
:1018600040EA012050490880A17B607B41EA0020CA
:1018700000B24D494880217CE07B41EA002000B263
:1018800049498880607C8871012000F0C1FA88E0B5
:101890004648008800B245490881207BE17A40EA49
:1018A000012042490880A17B607B41EA002000B210
:1018B0003E494880217CE07B41EA002000B23B4960
:1018C0008880607C8871022000F0A2FA69E03848C4
:1018D000008800B236490881207BE17A40EA012085
:1018E00033490880A17B607B41EA002000B2304987
:1018F0004880217CE07B41EA002000B22C498880AE
:10190000607C8871032000F083FA4AE000BF00BFCA
:1019100000BF2078401E274908700846007800EB79
:101920008000254931F8100000B22249097801EB06
:101930008101214A02EB41010881207BE17A40EAE2
:10194000012000E02CE01B49097801EB810122F81D
:101950001100A17B607B41EA002000B215490978A3
:1019600001EB810102EB41014880217CE07B41EAEF
:10197000002000B20F49097801EB810102EB41011F
:101980008880607C0B49097801EB810102EB410101
:10199000887108490978091DC8B200F039FA00E0D9
:1019A00000BF00BF10BD00002C060220360602203A
:1019B00040060220F80000204A06022002460020CD
:1019C00002EA01030BB1012000E000207047000093
:1019D00010B51049104800F043F9C8B10D490E4840
:1019E00000F022F806F058FF09F0DCFC01280FD0C7
:1019F0000A490B48006808F0D7FE0848006838B16B
:101A00004FF0805007490860BFF34F8FBFF36F8FCF
:101A100010BD00000008002088640240EC01002096
:101A20007001002004ED00E00246094B9A4201D209
:101A3000084801E00648103801F000531BB1064B7E
:101A40000B40C36002E0044B0B4083607047000012
:101A500010640240006002407D0F7D0F0246094B7A
:101A60009A4201D2084801E00648103801F00053BC
:101A70001BB1064B0B40C36002E0044B0B4083607C
:101A80007047000010640240006002407D0F7D0F2F
:101A900021B1026842F00102026003E0026822F014
:101AA0000102026070470000016821F0010101603D
:101AB0000021016041608160C160016121214161BB
:101AC0004A49884204D13D21484A103A91608CE04D
:101AD00046491831884205D14FF47461434A103A9F
:101AE000916082E041493031884205D14FF4741150
:101AF0003E4A103A916078E03C494831884205D12D
:101B00004FF07461394A103A91606EE037496031A4
:101B1000884204D13649354A103AD16065E03349EC
:101B20007831884204D13349304A103AD1605CE0C0
:101B30002E499031884204D12F492C4A103AD16065
:101B400053E02A49A831884205D14FF03D51274A38
:101B5000103AD16049E02949884204D13D21274A01
:101B6000083A116041E025491831884205D14FF407
:101B70007461224A083A116037E0204930318842C6
:101B800005D14FF474111D4A083A11602DE01B492C
:101B90004831884205D14FF07461184A083A116003
:101BA00023E016496031884204D11149134A121FBB
:101BB00011601AE011497831884204D10D490F4A69
:101BC000121F116011E00D499031884204D10A4979
:101BD0000A4A121F116008E00849A831884204D15E
:101BE0004FF03D51054A121F1160704710600240CE
:101BF0003D000020400F002000003D201064024006
:101C000021B1026842F48022026003E0026822F4FB
:101C100080220260704722B1036843F4002303600E
:101C200003E0036823F40023036001617047014669
:101C300000200A6802F001020AB1012000E0002041
:101C400070470146486880B27047014600200A6824
:101C500002F400220AB1012000E0002070470000D9
:101C600030B503460A46002000240B4DAB4201D29A
:101C70000A4901E00849103902F000550DB14C68DD
:101C800000E00C68064D2C4004EA02050DB101206D
:101C900000E0002030BD00001064024000600240FF
:101CA0007D0F7D0F10B501F080034BB122B1436968
:101CB00043F08003436103E0436923F08003436101
:101CC00080290BD02AB1036801F01E04234303606E
:101CD00004E0036801F01E04A343036010BD00008C
:101CE00010B500220268134B1A40CC680B682343DE
:101CF0004C6923438C692343CC6923430C6A2343F7
:101D00004C6A23438C6A23434C6B23438C6B2343E1
:101D10001A430260426922F00702D1E90B342343DF
:101D20001A4342610B6943604B6883608B68C360F0
:101D300010BD00003F801CF04160704770470000FC
:101D400070B50446002500BF11E005EBC5002A4927
:101D500001EB8000C07CC0F3401018B1284605F0AC
:101D60005DFC02E0284605F065FC681CC5B2072D45
:101D7000EBDD092C05D106F00BFD09201F49087089
:101D800037E01E480078A04201D01C4804701C486F
:101D9000007878B91B480078401C1A49087008463A
:101DA0000078322805DD00200870144800781449B6
:101DB000087070BD1448007880B906F0F3FC134831
:101DC000007840B10020114908700D480078401E8D
:101DD0000B49087002E001200C4908700A4800789D
:101DE000401C0949087008460078142801DD0020CD
:101DF000087000BFDDE70000080B0220250100206D
:101E000028010020290100202601002027010020B0
:101E100010B5044604EBC400454901EB800000689E
:101E200004EBC401424A02EB8101486009F0CAFA9E
:101E300004EBC4013E4A02EB8101086004EBC400DC
:101E4000114601EB8000C07CC0F38010B0B104EB00
:101E5000C40001EB8000C07C20F0400004EBC40112
:101E600002EB8101C87404EBC400114601EB800051
:101E7000006804EBC40102EB8101C86004EBC400FC
:101E80002B4901EB8000806990B304EBC401284A20
:101E900002EB81018869804758B304EBC4002449F0
:101EA00001EB8000C07C20F02000203004EBC40156
:101EB0001F4A02EB8101C87404EBC400114601EB18
:101EC0008000C07C20F08000803004EBC40102EB75
:101ED0008101C87404EBC400114601EB8000006A64
:101EE00028B304EBC40102EB8101086A80471EE0BD
:101EF0000FE0FFE704EBC4000D4901EB8000C07C5C
:101F000020F0800004EBC401094A02EB8101C8748F
:101F10000DE004EBC400064901EB8000C07C20F01A
:101F2000800004EBC401024A02EB8101C87410BDB9
:101F3000080B022010B58CB0044630225F49684679
:101F4000FEF700FB00209EE000EB40013DF8112071
:101F500000EBC0015A4B03EB8101098A62F30B01CC
:101F600000EBC00203EB8202118200EB40016A46E3
:101F700002EB41014A8800EBC00103EB8101B1F89B
:101F8000111062F30F1100EBC00203EB8202A2F802
:101F9000111000EB40016A4602EB4101097900EBA8
:101FA000C00203EB8202D27C61F3440200EBC00169
:101FB00003EB8101CA74002100EBC00203EB820233
:101FC000916100EBC00203EB8202D16100EBC00221
:101FD00003EB8202116200EBC0011A4602EB8101A1
:101FE000C97C21F00101491C00EBC00203EB820215
:101FF000D17400EBC0011A4602EB8101C97C21F0CB
:102000002001203100EBC00203EB8202D17400EB0F
:10201000C0011A4602EB8101C97C21F04001403128
:1020200000EBC00203EB8202D17400EBC0011A4640
:1020300002EB8101C97C21F08001803100EBC002FC
:1020400003EB8202D1749FED1F0A10EE101A00EB11
:10205000C00203EB8202516100EBC0011A4602EBA1
:1020600081010C6000EBC00102EB81014C6000EBD0
:10207000C00102EB81018C6000EBC00102EB810129
:10208000CC60411CC8B20828FFF65EAF0E480C4970
:1020900088610E48C8610E480862084690F8EB0057
:1020A00020F00101064880F8EB1090F80F0120F0B5
:1020B0000101034880F80F110CB010BD60C5000885
:1020C000080B0220000000003941000861A0000850
:1020D0006BA0000809F076F99E4908600846006880
:1020E000FFF728FF392008F0B1FA32E109F06AF968
:1020F00098490860082098490870984890F833017A
:1021000020F04001954880F8331190F8330120F019
:102110002001924880F83311002409E104EBC40047
:102120008E4901EB8000C07C00F0010000B9FEE0A8
:1021300004EBC400894901EB800000688549096807
:10214000081A04EBC401854A02EB8101098AC1F334
:102150000B01884260D904EBC400114601EB8000FA
:10216000C07CC0F3401008BB04EBC40001EB80004E
:10217000C07C20F04000403004EBC40102EB810140
:10218000C87404EBC400114601EB8000C07C20F051
:102190002000203004EBC40102EB8101C8746D48BB
:1021A000006804EBC40102EB8101886004EBC40009
:1021B0006A4901EB8000C07CC0F34300664909789E
:1021C00001EBC101654A02EB8101C97CC1F3430106
:1021D000884201DD60490C70604890F8330120F0BE
:1021E000400040305D4981F83301084690F83301E2
:1021F00020F02000203081F8330104EBC40001EB13
:102200008000C069002806D004EBC401534A02EBE9
:102210008101C869804789E004EBC4004F4901EBA4
:102220008000C0684B490968081A04EBC4014B4A96
:1022300002EB8101B1F81110B0EB111F1BD204EBBE
:10224000C400114601EB8000C07C20F0400004EB8C
:10225000C40102EB8101C87404EBC400114601EB18
:102260008000C07C20F02000203004EBC40102EB91
:102270008101C8745AE004EBC400384901EB8000C6
:10228000C07C20F0400004EBC401344A02EB810121
:10229000C87404EBC400114601EB8000C07CC00987
:1022A00068B104EBC40001EB8000C07C20F020008A
:1022B000203004EBC40102EB8101C8740DE004EB93
:1022C000C400264901EB8000C07C20F0200004EB14
:1022D000C401224A02EB8101C87404EBC4001F4907
:1022E00001EB8000006804EBC4011C4A02EB810191
:1022F000496888421AD904EBC400114601EB8000FA
:10230000006804EBC40102EB81014968401A00EE49
:10231000100AF8EE400A9FED121A81EE200A10EE24
:10232000100A04EBC40102EB8101486100BF641C88
:10233000082CFFF6F3AE08490978491CC8B2FFF72C
:10234000FFFC0A2008F082F9002008F029F805496E
:102350000860CBE62001002024010020080B0220A9
:1023600000007A441C01002010B54FF4807000F08A
:1023700011F840B14FF4807000F006F806F094FABE
:10238000172002F03DF810BD0149086070470000B9
:10239000143C014001460020034A12680A400AB179
:1023A000012000E000207047143C01400021234937
:1023B0008279002A3AD00A46126803689A430B468B
:1023C0001A600A1D126803689A430B1D1A6002798D
:1023D00011440A6803681A430A60184A08321268EE
:1023E00003689A43154B08331A601A1D1268036874
:1023F0009A43124B0C331A604279102A0ED11A1FDD
:10240000126803681A430D4B08331A601A1D1268CC
:1024100003681A43094B0C331A600DE007494279EF
:1024200011440A6803681A430A6005E002791144FE
:102430000A6803689A430A6070470000003C014044
:1024400001490860704700000C3C024070B504462A
:102450000A460026092502B909E0012A01D116021F
:1024600005E0022A01D1160201E04FF4407600F0A7
:102470009FF80546092D28D11548006820F44070C2
:102480001349086008460068304308600846006841
:1024900020F0F80008600846006844F00201084394
:1024A0000B4908600846006840F48030086000F07E
:1024B0007FF805460648006820F0020004490860DD
:1024C0000846006820F0F8000860284670BD00004B
:1024D000103C024009201349096801F48031B1F52C
:1024E000803F01D101201CE00E49096801F0100174
:1024F00009B1062015E00B49096801F4807109B1A2
:1025000002200EE00749096801F0E00109B1072047
:1025100007E00449096801F0020109B1082000E060
:10252000092070470C3C02400348006840F000401E
:102530000149086070470000103C024030B5024677
:102540000C46092500F034F80546092D19D10E482E
:10255000006820F440700C4908600846006840F4A8
:10256000007008600846006840F0010008601460D0
:1025700000F01EF805460448006820F001000249FA
:102580000860284630BD0000103C02400548006845
:1025900000F0004028B1044802490C3908600348A3
:1025A00008607047103C024023016745AB89EFCDBE
:1025B00008B509200090FFF78DFF009002E0FFF7BB
:1025C00089FF00909DF800000128F8D09DF80000D8
:1025D00008BD10B5044604B910BD94F8000120B937
:1025E00004F10C0005F0A9FE22E094F80001012896
:1025F00004D104F10C0005F06BFE19E094F8000121
:10260000022804D104F10C0005F0A8FE10E094F8B3
:102610000001032804D104F10C0005F0CEFE07E010
:1026200094F80001042803D104F10C0005F07EFEAB
:1026300094F82C0220B904F59C7005F07EFE19E098
:1026400094F82C02012804D104F59C7005F040FE9A
:1026500010E094F82C02022804D104F59C7005F0D7
:102660007DFE07E094F82C02042803D104F59C7049
:1026700005F05CFE00BFAFE710B52DED028B044600
:1026800014B9BDEC028B10BD606890ED010A84EDB9
:10269000900AB4F82E12D4F83821108806F0C8F841
:1026A00084ED8E0AA06890ED010A84ED920A6068BC
:1026B00090ED000A84ED450AB4F80211E268108832
:1026C00006F0B6F884ED430AD4ED8E0AB0EE600A47
:1026D000FDF75EFEA068D0ED020A20EE208AD4ED60
:1026E0008E0AB0EE600AFDF78FFEA068D0ED000AFA
:1026F00000EE608A84ED478AE068B0F9020000EEDF
:10270000100AB8EEC00ADFED040A20EE200A84EDBC
:10271000490A00BFB5E700000A01DA3910B50446DE
:1027200005F0A6F8E06005F09BF8C4F8380105F064
:102730008FF8606005F090F8A06005F01BF920604C
:10274000002184F8011184F8001184F82D1284F816
:102750002C129FED472ADFED471AB2EE041ADFED87
:10276000450AB2EE040A04F1100000F051F99FEDA1
:10277000412ADFED401AB2EE001ADFED3E0AB2EE5A
:10278000040A04F1400000F043F9DFED3B0A9FED3D
:102790003B0A3B4A002104F1700001F099F9DFED9A
:1027A000390A9FED390A394A002104F1B80001F0D5
:1027B0008FF99FED302ADFED2F1AB2EE0E1ADFED02
:1027C0002D0AB2EE040A04F59E7000F021F99FED87
:1027D000292ADFED281AB2EE0E1ADFED260AB2EE34
:1027E000040A04F5B67000F013F9DFED260A9FED38
:1027F000260A274A002104F5F27001F069F904F174
:10280000100000F039FD04F1400000F035FD04F146
:10281000B80001F08DF904F1700001F089F904F5B8
:102820009E7000F029FD04F5B67000F025FD04F55A
:10283000F27001F07DF92046FFF71EFF94ED450A86
:1028400084ED460A94ED430A84ED440A94ED470A68
:1028500084ED480A94ED900A84ED910A94ED8E0A75
:1028600084ED8F0A94ED920A84ED930A10BD000066
:102870009A99993E000000000000FA4400007A4650
:1028800090C5000800409C450060EA46A8C50008C5
:102890009CC5000800B9704790F8011169B190F823
:1028A000001151B9B0F9341100EE101AB8EEC00A97
:1028B00080ED4C0A80ED4A0A18E090F801110129D8
:1028C00008D090F80011012904D190ED450A80ED5F
:1028D000460A0BE090F80111022907D090F8001188
:1028E000022903D190ED430A80ED440A90F80021BB
:1028F00080F8012190F82D1269B190F82C1251B98D
:10290000B0F9601200EE101AB8EEC00A80ED970A16
:1029100080ED950A18E090F82D12012908D090F862
:102920002C12012904D190ED900A80ED910A0BE060
:1029300090F82D12022907D090F82C12022903D109
:1029400090ED8E0A80ED8F0A90F82C2280F82D22CF
:1029500000BFA0E710B52DED048B0446B0EE408A11
:10296000F0EE608AB0EE419A24B99FED260ABDECE4
:10297000048B10BD84ED048AC4ED038A78EEC89AF6
:102980009FED211ADFED210AB0EE690A05F014FF70
:1029900084ED050A94ED000AD4ED050A20EE200A24
:1029A00084ED080A94ED090AD4ED010A94ED051AA4
:1029B00000EE810A84ED090A94ED020A20EE090A6C
:1029C00084ED0A0AD4ED070AB0EE600A04F124008F
:1029D00002F0C0FF94ED080AD4ED090A30EE200A97
:1029E000D4ED0A0A30EE200A84ED0B0AD4ED060A73
:1029F000B0EE600A04F12C0002F0ACFF94ED0B0A7B
:102A0000B5E7000000000000DB0F4940DB0F49C0C4
:102A100000B9704780ED001AC0ED011A80ED022A5E
:102A2000DFED062AC0ED052ADFED042AC0ED042AF9
:102A3000C0ED070A80ED060A00BFEAE700000000CB
:102A40001CB5044604B91CBD9FED310A8DED010A89
:102A50009FED2F0A8DED000A2246694601A805F078
:102A60005BF894F8000120B99DED010A84ED4A0A53
:102A700026E094F80001012806D19DED010A04F139
:102A80000C0000F051F81BE094F80001022806D178
:102A90009DED010A04F10C0000F0C0F810E094F87C
:102AA0000001042804D19FED1A0A84ED4A0A07E0C8
:102AB00094F80001032803D19DED010A84ED4B0A2F
:102AC00094F82C0220B99DED000A84ED950A1DE0D2
:102AD00094F82C02012806D19DED000A04F59C70A3
:102AE00000F022F812E094F82C02022806D19DEDA5
:102AF000000A04F59C7000F091F807E094F82C02AD
:102B0000042803D19FED020A84ED4A0A00BF9AE728
:102B10000000000010B5044604B910BD204605F0C1
:102B2000D7F800BFF9E7000010B52DED028B044681
:102B3000B0EE408A14B9BDEC028B10BDD4ED430A4F
:102B400094ED421A70EEC10AB0EE600A9FED2F1AA2
:102B5000DFED2F0A05F030FE2E4880ED000A94EDDF
:102B6000400AD0ED000A30EE200A30EE080AD4ED1B
:102B70003E0AB4EEE00AF1EE10FA11DDB5EEC08ABD
:102B8000F1EE10FA2DDD94ED3E0AD4ED400A30EE60
:102B9000600AD0ED000A30EE600AB0EE408A20E014
:102BA00094ED400A1B48D0ED000A30EE200A30EECA
:102BB000080AD4ED3F0AB4EEE00AF1EE10FA10D2A2
:102BC000B5EEC08AF1EE10FA0BD294ED3F0AD4EDC7
:102BD000400A30EE600AD0ED000A30EE600AB0EE36
:102BE000408A94ED430A0C4880ED000AD0ED000ABB
:102BF00070EE880AB0EE600A9FED041ADFED040A59
:102C000005F0DAFD84ED430A00BF94E7DB0F49408D
:102C1000DB0F49C0680100206C01002000B970473B
:102C2000D0ED410A70EE800AC0ED410AD0ED410AB4
:102C300090ED3E1AF4EEC10AF1EE10FA04DDD0ED8B
:102C40003E0AC0ED410A0CE0D0ED410A90ED3F1A7A
:102C5000F4EEC10AF1EE10FA03D2D0ED3F0AC0ED56
:102C6000410A00BFDBE70000C92007F0EFFC334852
:102C7000FFF754FD07F098F805E0012007F0E6FCA7
:102C80002E48FFF7F9FC012007F0F2FA0028F4D1F2
:102C9000022007F0EDFA0028EFD1032007F0E8FA50
:102CA0000028EAD149E02548FFF734FF2348FFF721
:102CB000F1FD2248FFF7E0FC2048FFF7C1FE1F4866
:102CC000FFF787FC06F068FF1D4908801B48B0F835
:102CD00034011C4908801948B0F860021A4908807C
:102CE000012007F0C5FA38B1022007F0C1FA18B187
:102CF000032007F0BDFAC0B9002007F0B9FA30B1DF
:102D000000231A4619461846FEF76AFA0DE04FF4FA
:102D100020720A490D48FDF715FC00231A46194692
:102D20000848B0F90000FEF75BFA012007F08EFCBE
:102D3000002007F035FB06490860B4E74C0C022080
:102D4000640100206001002062010020CC0E0220FE
:102D50005C01002000B585B00121022000F00EFFCB
:102D60000121880300F03AFF0821012001F040FC16
:102D70004FF48070009000208DF8040001208DF841
:102D8000060000208DF8070003208DF80500694635
:102D9000114800F023F84FF48070029000208DF865
:102DA0000C0008208DF80D0001208DF80E0002A8FF
:102DB000FFF7FCFA17208DF8100005208DF81100A0
:102DC00000208DF8120001208DF8130004A800F0F7
:102DD00041FD05B000BD000000040240F0B50A4608
:102DE00000210023002400BF3DE0012505FA01F386
:102DF000156805EA03049C4234D105684F00032698
:102E0000BE40B543056015794E00B54006683543B0
:102E100005601579012D02D01579022D16D185682E
:102E20004F000326BE40B543856055794E00B5403E
:102E3000866835438560456801268E40B543456008
:102E4000456896798E40B6B235434560C5684F00F7
:102E50000326BE40B543C560D5794E00B540C6686F
:102E60003543C560491C1029BFD3F0BDF0B5002320
:102E700000244D07ED0E02FA05F3CE1000F12005F7
:102E800055F826504E07F70E0F26BE40B543CF101B
:102E900000F1200646F82750CE1000F1200555F825
:102EA000265045EA0304CE1000F1200545F82640DF
:102EB000F0BD0246002013690B400BB1012000E079
:102EC00000207047418370470183704742694A4040
:102ED00042617047014600205C4A914203D2B1F141
:102EE000006F00D3B0E05A4A914204D2574A91424F
:102EF00001D30820A8E0574A914204D2544A914293
:102F000001D31020A0E0544A914204D2514A914288
:102F100001D3182098E0514A914204D24E4A91427E
:102F200001D3202090E04E4A914204D24B4A914274
:102F300001D3282088E04B4A914204D2484A91426A
:102F400001D3302080E0484A914204D2454A914260
:102F500001D3382078E0454A914204D2424A914256
:102F600001D3402070E0424A914204D23F4A91424C
:102F700001D3482068E03F4A914204D23C4A914242
:102F800001D3502060E0B1F1016F04D2394A91427F
:102F900001D3582058E0384A914204D2B1F1016F70
:102FA00001D3802050E0354A914204D2324A914206
:102FB00001D3882048E0324A914204D22F4A9142FC
:102FC00001D3902040E02F4A914204D22C4A9142F2
:102FD00001D3982038E02C4A914204D2294A9142E8
:102FE00001D3A02030E0294A914204D2264A9142DE
:102FF00001D3A82028E0264A914204D2234A9142D4
:1030000001D3B02020E0234A914204D2204A9142C9
:1030100001D3B82018E0204A914204D21D4A9142BF
:1030200001D3C02010E01D4A914204D21A4A9142B5
:1030300001D3C82008E01A4A914204D2174A9142AB
:1030400001D3D02000E0D8207047000000400008E5
:103050000080000800C0000800000108000002080D
:1030600000000408000006080000080800000A0824
:1030700000000C0800000E08004010080080100836
:1030800000C0100800001108000012080000140819
:10309000000016080000180800001A0800001C08AC
:1030A00000001E08014600205D4A914204D2B1F1A1
:1030B000006F01D31046B2E05A4A914204D2584AF6
:1030C000914201D35748AAE0574A914204D2554A47
:1030D000914201D35448A2E0544A914204D2524A48
:1030E000914201D351489AE0514A914204D24F4A49
:1030F000914201D34E4892E04E4A914204D24C4A4A
:10310000914201D34B488AE04B4A914204D2494A4A
:10311000914201D3484882E0484A914204D2464A4B
:10312000914201D345487AE0454A914204D2434A4C
:10313000914201D3424872E0424A914204D2404A4D
:10314000914201D33F486AE03F4A914204D23D4A4E
:10315000914201D33C4862E0B1F1016F05D23A4A95
:10316000914202D34FF0016059E0384A914204D2B3
:10317000B1F1016F01D3104651E0354A914204D2BA
:10318000324A914201D3324849E0324A914204D254
:103190002F4A914201D32F4841E02F4A914204D255
:1031A0002C4A914201D32C4839E02C4A914204D256
:1031B000294A914201D3294831E0294A914204D257
:1031C000264A914201D3264829E0264A914204D258
:1031D000234A914201D3234821E0234A914204D259
:1031E000204A914201D3204819E0204A914204D25A
:1031F0001D4A914201D31D4811E01D4A914204D25B
:103200001A4A914201D31A4809E01A4A914204D25B
:10321000174A914201D3174801E04FF0026070470E
:10322000004000080080000800C0000800000108FD
:10323000000002080000040800000608000008085A
:1032400000000A0800000C0800000E0800401008EA
:103250000080100800C010080000110800001208CB
:1032600000001408000016080000180800001A08E2
:1032700000001C0800001E0800B970479FED090AF5
:1032800080ED040A80ED030A80ED050A9FED050A32
:1032900080ED0A0A80ED090A80ED080A80ED0B0A2C
:1032A00000BFEAE70000000000BFFEE7F0B50546FA
:1032B000059C00207FE093ED050A00EB4006404F9F
:1032C00007EB8606D6ED000A20EE200AD3ED060AAB
:1032D00000EB400607EB860696ED011A00EE810A28
:1032E000D3ED070A00EB400607EB860696ED021ABF
:1032F00000EE810A334E06EB8006D6ED000A30EE72
:10330000200A05EB800686ED000A93ED010A00EB2A
:1033100040062D4F07EB8606D6ED000A20EE200A68
:10332000D3ED020A00EB400607EB860696ED011A84
:1033300000EE810AD3ED030A00EB400607EB860698
:1033400096ED021A00EE810A204E06EB8006D6EDBD
:10335000000A30EE200A01EB800686ED000A94EDAB
:10336000010A00EB40061A4F07EB8606D6ED000A6D
:1033700020EE200AD4ED020A00EB400607EB860699
:1033800096ED011A00EE810AD4ED030A00EB400627
:1033900007EB860696ED021A00EE810A0D4E06EB4B
:1033A0008006D6ED000A30EE200A02EB800686ED9C
:1033B000000A461CF0B20328FFF67DAFF0BD000006
:1033C00078010020901102209C0100209C11022015
:1033D000C0010020B811022010B52DED028BB0EE17
:1033E000408A2748007838B304F0BAFA00EE100A91
:1033F000B8EEC00AF0EE408AF0EE680AB0EE480A75
:10340000204800F06DFA1F4890ED080AB5EEC00A9A
:10341000F1EE10FA03D29FED1C0A80ED080A19485C
:1034200090ED080ABCEEC00A10EE100A84B22146E4
:10343000164801F04CFE20E004F092FA00EE100A6B
:10344000B8EEC00AB4EEC80AF1EE10FA10D2104875
:103450000078401C0E49087008460078C82807DD2F
:103460000120074908709FED0B0A064880ED0A0A03
:1034700041F28731054801F02AFEBDEC028B10BDF8
:10348000E4010020041202200000000000040040BB
:10349000E801002000401C4508B5072007F0D6F8D9
:1034A00000BF05F037FA0028FBD100BF05F06AF82D
:1034B0000028FBD105F074FB044607F021FFA44966
:1034C0000860FFF747FC1722A249A34800F0D2FF8B
:1034D00001221146A14801F055F8012202219F481E
:1034E00001F050F80021102000F072FF2FE100BF22
:1034F0004FF0FF31012006F0C7FE0128F8D19849AE
:103500009448401C05F074FA96499248103005F032
:1035100081F89448924B944A944900909448FFF75C
:10352000C5FE8F48007800F00100002846D0914881
:103530000078E8BB012141F2883001F00DFBDFED9E
:103540008E0A9FED8E0A8E4A01218E4800F0C0FA45
:10355000854A86498C48FDF77BFA8C4B1A1F111F50
:10356000894804F089F9814890ED000A884880ED87
:10357000000A884880ED000A874880ED000A7B48F1
:1035800090ED010A824880ED010A824880ED010A2F
:10359000814880ED010A754890ED020A7C4880ED73
:1035A000020A7C4880ED020A7B4880ED020A00E0B6
:1035B00005E070480078401C6E490870BBE0754813
:1035C00090ED000A744880ED000A714890ED000A01
:1035D000704880ED000A90ED000A7048D0ED000AB6
:1035E00020EE200A6C48D0ED000A6C4890ED011ADC
:1035F00000EE810A5D48D0ED000A684890ED021A9D
:1036000000EE810A624880ED000A624890ED010AEE
:10361000614880ED010A5E4890ED010A5D4880ED49
:10362000010A90ED010A5D48D0ED000A20EE200A63
:103630005948D0ED010A594890ED011A00EE810A6F
:103640004A48D0ED010A554890ED021A00EE810A71
:103650004F4880ED010A4F4890ED020A4E4880ED38
:10366000020A4B4890ED020A4A4880ED020A90EDAA
:10367000020A4A48D0ED000A20EE200A4648D0ED62
:10368000020A464890ED011A00EE810A3748D0ED53
:10369000020A424890ED021A00EE810A3C4880ED91
:1036A000020A314B024632499FED3D0A3648FDF78A
:1036B00047FB364B1A1F111F334804F0DDF8394819
:1036C0000088B8B9384890ED000A384880ED000A03
:1036D000354890ED010A354880ED010A324890EDF9
:1036E000020A324880ED020A2E480088401C2D490B
:1036F000088020E02B480088B0F5FA7F0FDA42F20C
:1037000010715F2002F006FC2948007898B1144837
:103710000278244B1649254804F082FE0BE021482C
:103720000088B0F5FA7F06D102F0ECFB1D48008856
:10373000401C1C4908800A48D0ED040AB0EE600A1B
:10374000FFF74AFE002006F02BFE1A490860CEE67D
:10375000700100204C110220B4C500080050014047
:1037600064110220A8110220DC110220D0110220D5
:10377000C4110220E50100200080894500A08C458D
:10378000CCC5000804120220F4110220F01102201E
:1037900064120220581202204C120220D8C50008E0
:1037A0006F12833AE601002084110220901102205A
:1037B000E40100207401002070B506460C46154651
:1037C0001548007838B3288888B9144890ED000A65
:1037D000134880ED000A114890ED010A104880ED71
:1037E000010A0E4890ED020A0D4880ED020A0D48CC
:1037F00002782B460C490A4804F012FE084890ED66
:10380000000A84ED000A90ED010A84ED010A90EDB2
:10381000020A84ED020A70BDE40100208411022036
:103820009011022064110220C411022091ED000ABF
:10383000054A82ED000A91ED010A82ED010A91ED3F
:10384000020A82ED020A70478411022000BFFEE7DF
:103850007047000070B5002100230F22C4781CB30C
:10386000174C246804F4E064C4F5E064C4F3072151
:10387000C1F10404E3B20A4144789C40E1B2847887
:10388000144021430C07210E0E4C05786155047835
:1038900004F01F050124AC4005786D11AD0005F161
:1038A000E025C5F8004109E0047804F01F05012473
:1038B000AC40054D0678761145F8264070BD0000F5
:1038C0000CED00E000E400E080E100E0024901438B
:1038D000024A1160704700000000FA050CED00E09C
:1038E000B0EE401A10B99FED790A704790ED100ABA
:1038F00080ED110A90ED0F0A80ED100AC0ED060A66
:1039000080ED071A30EEC10A80ED0F0A0178002918
:1039100075D190ED010AD0ED0F1A20EE210A80ED4D
:10392000090A90ED0A0AD0ED021A90ED0F2A01EE75
:10393000820A80ED0A0A90ED0D0A80ED0E0A90EDE4
:103940000C0A80ED0D0A90ED0F0AD0ED101A30EE42
:10395000610A80ED0C0A90ED030AD0ED0C1A20EEFE
:10396000210A80ED0B0A90ED0A0AD0ED051AB4EE9B
:10397000E10AF1EE10FA04DD90ED050A80ED0A0A85
:1039800010E090ED0A0AD0ED051AF1EE611AB4EEDE
:10399000E10AF1EE10FA05D290ED050AB1EE400A07
:1039A00080ED0A0A90ED090AD0ED0A1A30EE210ADC
:1039B000D0ED0B1A30EE210A80ED080A90ED080ACE
:1039C000D0ED041AB4EEE10AF1EE10FA04DD90ED48
:1039D000040A80ED080A76E090ED080AD0ED041A9A
:1039E000F1EE611AB4EEE10AF1EE10FA6BD290ED4D
:1039F000040AB1EE400A80ED080A64E0FFE70178AE
:103A0000012960D190ED0F0AD0ED101A30EE610A55
:103A1000D0ED011A20EE210A80ED090A90ED020A8C
:103A2000D0ED0F1A20EE210A80ED0A0A90ED0D0A62
:103A300080ED0E0A90ED0C0A80ED0D0A90ED0F0A54
:103A4000D0ED101AB0EE002A02EE610AD0ED111A84
:103A500030EE210A80ED0C0A90ED030AD0ED0C1A2D
:103A600020EE210A80ED0B0A90ED090AD0ED0A1A2A
:103A700030EE210AD0ED0B1A30EE210AD0ED081AF3
:103A800030EE210A80ED080A90ED080AD0ED041A04
:103A9000B4EEE10AF1EE10FA04DD90ED040A80EDD7
:103AA000080A10E090ED080AD0ED041AF1EE611A50
:103AB000B4EEE10AF1EE10FA05D290ED040AB1EE8F
:103AC000400A80ED080A90ED080A0EE700000000A9
:103AD00000B102B97047017092ED001A80ED011A31
:103AE00092ED011A80ED021A92ED021A80ED031A8E
:103AF00080ED040AC0ED050A9FED0C1A80ED0E1A48
:103B000080ED0D1A80ED0C1A9FED081A80ED081A51
:103B100080ED0B1A80ED0A1A80ED091A80ED111A5A
:103B200080ED101A80ED0F1A00BFD3E700000000EF
:103B300000B970479FED100A80ED110A80ED100A60
:103B400080ED0F0A9FED0C0A80ED0E0A80ED0D0A44
:103B500080ED0C0A9FED080A80ED0B0A80ED0A0A41
:103B600080ED090A80ED080A9FED030A80ED060A40
:103B700080ED070A00BFDCE70000000029B1064A1B
:103B800012680243044B1A6004E0034A126882433D
:103B9000014B1A60704700003038024029B1064AD4
:103BA00012680243044B1A6004E0034A126882431D
:103BB000014B1A60704700004038024029B1064AA4
:103BC00012680243044B1A6004E0034A12688243FD
:103BD000014B1A60704700002038024029B1064AA4
:103BE00012680243044B1A6004E0034A12688243DD
:103BF000014B1A60704700004438024029B1064A60
:103C000012680243044B1A6004E0034A12688243BC
:103C1000014B1A607047000024380240F0B50021C3
:103C200000220024022500260223324F3F6807F0BD
:103C30000C0121B1042905D0082937D105E02E4F08
:103C4000076036E02D4F076033E02A4F3F1F3F6883
:103C5000C7F38056274F3F1F3F6807F03F036EB101
:103C6000264FB7FBF3F7DFF88CC0ACF1040CDCF89F
:103C700000C0CCF3881C07FB0CF40CE01E4FB7FB14
:103C8000F3F7DFF870C0ACF1040CDCF800C0CCF343
:103C9000881C07FB0CF4174F3F1F3F68C7F3014711
:103CA0007F1C7D00B4FBF5F7076002E0124F076050
:103CB00000BF00BF0F4F3F6807F0F0010909104F28
:103CC0007A5C0768D74047600A4F3F6807F4E051C5
:103CD000890A0B4F7A5C4768D7408760054F3F6879
:103CE00007F46041490B064F7A5C4768D740C760CC
:103CF000F0BD0000083802400024F400001BB700AB
:103D00001400002070B590B004460E4615460121FF
:103D10004A48FFF733FF01211020FFF75FFF012121
:103D20001020FFF76BFF00211020FFF767FF07222D
:103D300011464348FFF79AF880200E9002208DF834
:103D40003C0000208DF83E0003208DF83D0000204F
:103D50008DF83F000EA93A48FFF740F8394801F0C6
:103D600093FA39480A900020ADF82C00ADF82E00E7
:103D70004FF48060ADF830000420ADF83200002030
:103D8000ADF834000AA92F4801F046FB012240217A
:103D90002C4801F070FA10212A4801F057FA01224C
:103DA00040F22441274801F011FB0121254801F090
:103DB00056FA25208DF83C0004208DF83D000020A7
:103DC0008DF83E0001208DF83F000FA8FFF742FD5F
:103DD0001E48FDF769FE4FF0006001901948001D74
:103DE0000290039400200490059506904FF48060A3
:103DF00007900020089009904FF480700A904FF4CB
:103E000040300B9000200C900D900E900F9001A967
:103E10000E48FDF765FF002231460C48FDF7FBFE1A
:103E200001210A48FDF7ECFE00210848FDF730FEAD
:103E300001210648FDF72CFE10B070BD02004000C5
:103E40000004024000100140A086010040640240CE
:103E50000146002901DD08467047484200B2FBE7F1
:103E600010B50020AB49087017E0AA48007800EBB5
:103E7000800101EBC000A84908440079C00938B1AD
:103E80000020A6490880A6490880A649087010BDF0
:103E9000A0480078401C9F4908709E48007805287B
:103EA000E3DBA048007878B99D480088B0F5FA6F48
:103EB0000ADD07F087FA9C490860012099490870DB
:103EC0000020974908803BE096480078022811D1ED
:103ED00093480088B0F5FA6F0CDD00209149087016
:103EE0008F4908808C48407C20F0800080308A49CF
:103EF000487425E08B480078032821D18848008841
:103F0000B0F5FA6F1CDD00208649087084490880EE
:103F10008148807F20F0800080307F49887703F0DF
:103F20002DFDBDEEC00A10EE100A0A3040B27F49E6
:103F30004870084690F901002D2801DD2D204870B9
:103F40007B480068B0F9000010F5167F27DA784842
:103F50000068B0F9020010F5167F20DA7448006896
:103F6000B0F90400B0F5167F19DD71480068B0F9AA
:103F7000060010F5167F12DA6D480068807A022874
:103F80000DD16B480068C07A022808D165480078D6
:103F900028B963480088401C6149088066E064488D
:103FA0000068B0F90000B0F5167F2ADD60480068AF
:103FB000B0F90200B0F5167F23DD5D480068B0F966
:103FC000040010F5167F1CDA59480068B0F90600A5
:103FD000B0F5167F15DD56480068807A022810D1AA
:103FE00053480068C07A02280BD14E48007840B18F
:103FF0004B480088401C4A49088002204949087003
:1040000034E04B480068B0F90000B0F5167F2ADDB7
:1040100047480068B0F9020010F5167F23DA4448DB
:104020000068B0F9040010F5167F1CDA40480068FB
:10403000B0F9060010F5167F15DA3D480068807A61
:10404000022810D13A480068C07A02280BD13548BE
:10405000007840B132480088401C31490880032074
:104060003049087002E000202D49088007F0AAF9C5
:1040700030490860084600682B490968401A44F630
:104080002061884203D9002026490870FFE62948AC
:10409000006825490968401A42F2107188420AD91D
:1040A0002148006838B11F48007820B149001F201E
:1040B00001F030FF10E01F4800681B490968401AF2
:1040C0000AD01948006838B11648007820B142F289
:1040D00010715F2001F01EFF1248007820B10F48D8
:1040E0000088401C0D4908800C480088B0F5C87F46
:1040F00005DD0C48007810B1002008490880074809
:104100000088C82804DD0748007808B101F0FAFEED
:1041100000BFBCE6E9000020E8050220F000002016
:10412000F2000020F4000020EC000020AC00002091
:10413000A8000020E400002010B52449B1F90000D7
:10414000FFF786FEB0F52F7F00DD24E01F49B1F9AF
:104150000200FFF77DFEB0F52F7F00DD1BE01B495D
:10416000B1F90400FFF774FEB0F52F7F00DD12E017
:104170001649B1F90600FFF76BFEB0F52F7F00DDA1
:1041800009E01248807A00B905E01048C07A00B909
:1041900001E0002010BD00200C4908804880888084
:1041A000C88008810220887202210848C17200205C
:1041B0000649888100210548C18101828174C1744A
:1041C0000020024988820120E4E7000070120220EA
:1041D00010B504460021104801F041F800210F48B5
:1041E000FDF756FC21460D48FDF7A6FD10210A48B3
:1041F00001F02CF84FF081510848FDF715FC0849F3
:104200000648FDF72BFC01210448FDF741FC012184
:10421000014801F024F810BD001001404064024044
:104220000080201010B50021014801F018F810BDE1
:104230000010014000B101B970470278437842EAAA
:104240000322C2F30A020A804278D210837842EA3B
:104250004312C2F30A024A8082789211C37842EA7A
:104260008302037942EA8322C2F30A028A80027936
:104270005210437942EAC312C2F30A02CA80427959
:10428000C2F301128A72427912119308CB728279B9
:10429000C37942EA032212B28A81027A437A42EA5D
:1042A000032213B201F10C02CB81827AC37A42EA73
:1042B000032213B201F10C020B82037B8B74437B4C
:1042C000CB74827BC37B42EA03228A82027C437CDA
:1042D00042EA032212B20A810A88A2F5806212B26F
:1042E0000A804A88A2F5806212B24A808A88A2F5C2
:1042F000806212B28A80CA88A2F5806212B2CA8035
:104300000A89A2F5806212B20A8100BF94E7000018
:1043100000B587B001212020FFF730FC01210805FE
:10432000FFF75CFC4FF46070059002208DF81800D8
:1043300000208DF81A0001208DF81B0003208DF855
:10434000190005A92048FEF749FD052207211E484E
:10435000FEF78CFD052208211B48FEF787FD05228C
:1043600009211948FEF782FD01210805FFF746FCE7
:1043700000214FF48010FFF741FC0020ADF8000051
:104380004FF48270ADF802000020ADF80400022066
:10439000ADF806000120ADF808004002ADF80A00B3
:1043A0003820ADF80C000020ADF80E000720ADF865
:1043B00010006946054800F0FCF80121034800F0B0
:1043C000D5F807B000BD00000014024000500140C5
:1043D0000A4A12884FF2C7731A40084B1A801A46CD
:1043E000128802431A801A4612880A431A801A4613
:1043F000128842F040021A807047000000500140CD
:1044000010B5044600211848FDF742FB002116486C
:104410001830FDF73DFB00BF1348FDF708FC0028EE
:10442000FAD100BF10481830FDF701FC0028F9D17F
:104430000E490D481830FDF7F7FA0D490A48FDF707
:10444000F3FA21460848FDF777FC21460648183064
:10445000FDF772FC012104481830FDF719FB01211A
:104460000148FDF715FB10BD70640240000C0020F0
:104470003000002070B590B005460E46144601216C
:104480008805FFF77BFB44208DF83C0005208DF864
:104490003D0000208DF83E0001208DF83F000FA860
:1044A000FFF7D8F92F48FDF7FFFA00BF2D48FDF7B9
:1044B000BEFB0028FAD14FF0606000902A480190BE
:1044C000029600200390049405904FF480600690BB
:1044D00000200790089009904FF440300A90002087
:1044E0000B900C900D900E9069461E48FDF7F8FB5E
:1044F000012210211B48FDF7D5FB00211948FDF7CB
:10450000C7FA18481838FDF7CFFA00BF1548183811
:10451000FDF78DFB0028F9D14FF080600090124824
:1045200001900295402003900494002005904FF4E0
:104530008060069000200790089009904FF480302A
:104540000A9000200B900C900D900E906946054843
:104550001838FDF7C5FB002102481838FDF798FA16
:1045600010B070BD886402400C50014021B1028837
:1045700042F04002028004E002884FF6BF731A4006
:10458000028070471AB183880B43838002E08388DE
:104590008B43838070470246002013890B400BB188
:1045A000012000E000207047014688897047818122
:1045B000704710B50022028802F441520B884C88E3
:1045C00023438C882343CC8823430C8923434C8981
:1045D00023438C892343CC8923431A430280838B52
:1045E0004FF2FF74234083830B8A038210BD0000C7
:1045F00030B500228B071C0F0F2303FA04F20B4B7C
:104600008C1053F824309343084C8D1044F8253017
:1046100023468C1053F824308C07240F00FA04F43E
:104620002343024C8D1044F8253030BD083801403A
:104630000CB50020019000904148006840F48030A3
:104640003F49086000BF3E48006800F40030009019
:104650000198401C0190009818B90198B0F5A04F3E
:10466000F1D13748006800F4003010B1012000900B
:1046700001E0002000900098012860D130484030CF
:10468000006840F080502E49403108602D48006895
:1046900040F440402B490860294808300068284908
:1046A000083108600846006840F400400860084689
:1046B000006840F4A05008602348091F0860081FE4
:1046C000006840F08070091F086000BF1C48006847
:1046D00000F000700028F9D01A48006840F48030DB
:1046E0001849086000BF1748406800F4803000286F
:1046F000F9D01448006840F400301249086000BF47
:104700001048406800F400300028F9D040F20570ED
:104710000E4908600A480830006820F00300084984
:10472000083108600846006840F00200086000BFD9
:1047300003480830006800F00C000828F8D10CBDD0
:104740000038024000700040062D4008003C024046
:1047500010B5724890ED000A714880ED000A71486A
:1047600090ED000A6D4880ED000A6F4890ED000A58
:104770006A48D0ED000A20EE200A6B48D0ED010A0D
:10478000674890ED001A01EE200A6848806AB0F987
:10479000020000EE900AF8EEE00A9FED651A60EE66
:1047A000810A614890ED021A00EE810A5D4880EDB1
:1047B000000A90ED000A5D4880ED0B0A806A0088CF
:1047C0005A49896AB1F90810401AB0F5805F08DDCE
:1047D000564890F83E00401E40B2544981F83E00D1
:1047E00012E05248806A00885049896AB1F908107D
:1047F000401A10F5805F07DA4C4890F83E00401CE4
:1048000040B24A4981F83E00484890F83E001228DC
:1048100004D1EF20454981F83E0008E0434890F973
:104820003E00123018B91120404981F83E003F483F
:1048300090F93E00C0EB40303C49896A0988084441
:1048400000EE100AB8EEC00ADFED3A0A20EE200AA8
:10485000364880ED0D0A4FF480613748FEF729FB9A
:10486000324981F85400084690F83F0081F8410031
:10487000084690F8400081F8420030480068807C8B
:1048800081F83F002D480068C07C81F84000084650
:1048900090F83F0060B10846B0F84400B0F5C87F1A
:1048A0000ADA0846B0F84400401CA1F8440003E0CE
:1048B00000201E49A1F844001C4890F8400068B14F
:1048C0001A48B0F84600B0F5C87F0BDA1748B0F8C0
:1048D0004600401C1549A1F8460003E0002013499A
:1048E000A1F846001648007890B114480068C07AD4
:1048F00002280DD10D48B0F84800B0F5FA6F0BDA78
:104900000A48B0F84800401C0849A1F8480003E0F4
:1049100000200649A1F8480010BD00000802002050
:10492000040200200C020020F0C500081813022029
:10493000F1A23E3BC2B8B23700140240F40100209D
:10494000F801002010B54C480068C07A01280AD14F
:104950004A480078012806D04948007818B9012053
:104960004749087014E044480068C07A012806D11D
:1049700042480078012802D04148007828B93E48D2
:104980000068007D00F0800010B100203C490870F4
:1049900039480068C07A03280CD137480068007D88
:1049A00000F0400030B13648007818B90120344991
:1049B000087011E030480068C07A03280CD12E48F6
:1049C0000068007D00F0800030B12D48007801289B
:1049D00002D100202A49087003F0F6FB10B1002034
:1049E000274908702648007801283ED122480068EF
:1049F000C07A022803D12148007802280FD121482B
:104A000090F83F0018B11F4890F8410038B11D4898
:104A100090F8400060B11B4890F8420040B9022075
:104A2000174908701748B0F85A001649A1F85C00F9
:104A30001448B0F84400B0F5C87F0BD01148B0F866
:104A40004600B0F5C87F05D00E48B0F84800B0F574
:104A5000FA6F0AD10A480078032806D0094890F86E
:104A6000540010B902200649087003480068C07A53
:104A700040B20249087010BDF4010020000200207D
:104A8000F801002018130220042808D14FF0E0217B
:104A9000096941F004014FF0E022116107E04FF095
:104AA000E021096921F004014FF0E0221161704713
:104AB00010B506F077FC012801D006F0CFF810BD44
:104AC00010B51548006840F4700013490860134899
:104AD000006840F001001149086000200F490831CA
:104AE00008600E4800680E4908400C4908600D48EF
:104AF000091D0860081F006820F48020091F086055
:104B0000002006490C310860FFF792FD4FF000606D
:104B100001498039086010BD88ED00E0003802408E
:104B2000FFFFF6FE1030002410B50121084800F008
:104B3000C1F960B10121064800F0D6F805480268C5
:104B40004068521C40F1000002490A60486010BDF4
:104B5000000400403001002030B58BB005460C4603
:104B600001210220FFF71AF801210220FFF706F8C1
:104B7000022205212D48FEF779F901210220FFF7D5
:104B80001DF800210220FFF719F81D208DF81400F0
:104B900005208DF8150000208DF8160001208DF8F5
:104BA000170005A8FEF756FE681E0990601E80B229
:104BB000ADF820000020ADF82200ADF82800012259
:104BC00011461B4800F087F908A9194800F084FA3B
:104BD0002020069002208DF81C0003208DF81D0077
:104BE00000208DF81E0002208DF81F0006A90F4836
:104BF000FEF7F4F86020ADF800000120ADF80200E7
:104C00000020ADF80C006946094800F0B5F908210C
:104C1000074800F003FA0121054800F059F8012186
:104C2000034800F064F80BB030BD000000040240FF
:104C30000004004010B50121064800F03BF938B1EE
:104C40000121044800F050F80021024800F04FF81C
:104C500010BD0000001000407FB505460C46012144
:104C60001020FEF79BFF01211020FEF7A7FF002177
:104C70001020FEF7A3FF154800F054F8681E0290BC
:104C8000601E80B2ADF804000020ADF80600ADF85B
:104C90000C0001A90D4800F01FFA012211460B4833
:104CA00000F019F936208DF8000004208DF801007D
:104CB00000208DF8020001208DF803006846FEF701
:104CC000C9FD0121014800F012F87FBD001000402D
:104CD00021B1028842F08002028004E002884FF68F
:104CE0007F731A4002807047CA430282704721B125
:104CF000028842F00102028004E002884FF6FE734F
:104D00001A400280704731B1B0F8442042F40042AA
:104D1000A0F8442005E0B0F84420C2F30E02A0F849
:104D20004420704710B504465548844208D10121FB
:104D30000846FEF763FF00210120FEF75FFF9DE0BC
:104D4000B4F1804F08D101210846FEF737FF00215A
:104D50000120FEF733FF91E04A48844208D1012147
:104D60000220FEF72BFF00210220FEF727FF85E03F
:104D70004548844208D101210420FEF71FFF00218D
:104D80000420FEF71BFF79E04048844208D101214E
:104D90000820FEF713FF00210820FEF70FFF6DE04B
:104DA0003B48844208D101211020FEF707FF002173
:104DB0001020FEF703FF61E03648844208D101214C
:104DC0002020FEF7FBFE00212020FEF7F7FE55E035
:104DD0003148844208D101210220FEF70FFF002153
:104DE0000220FEF70BFF49E02C48844209D1012143
:104DF0000804FEF703FF00214FF48030FEF7FEFEAB
:104E00003CE02748844209D101214804FEF7F6FE20
:104E100000214FF40030FEF7F1FE2FE021488442DC
:104E200009D101218804FEF7E9FE00214FF480201A
:104E3000FEF7E4FE22E01C48844208D10121402014
:104E4000FEF7BCFE00214020FEF7B8FE16E0174832
:104E5000844208D101218020FEF7B0FE002180208D
:104E6000FEF7ACFE0AE01248844207D1012180150A
:104E7000FEF7A4FE0021A015FEF7A0FE10BD000065
:104E8000000001400004004000080040000C004009
:104E900000100040001400400004014000400140A8
:104EA000004401400048014000180040001C004040
:104EB0000020004030B50246002000230024158A5F
:104EC00005EA0103958905EA010413B10CB101203B
:104ED00000E0002030BD1AB183890B43838102E0DA
:104EE00083898B438381704770B50024002200239F
:104EF000058C4FF6FE7635400584028C8388048B42
:104F00004FF68F752C40B51E2C400D882C43751E16
:104F10002A408D892A434D882A43104DA84202D049
:104F20000F4DA84213D14FF6F7752A40CD892A4379
:104F30004FF6FB752A408D882A434FF6FF652B40BC
:104F40004FF6FF552B400D8A2B434D8A2B43838010
:104F500004838D684563028470BD00000000014039
:104F6000000401400A460021018B4FF6F7731940F7
:104F7000114301837047000070B500240022002314
:104F8000058C4FF6EF7635400584028C8388048BC0
:104F900048F6FF752C404FF6FF452C400D884FF624
:104FA000FF7606EA05252C434FF6DF752A408D89EA
:104FB00006EA05152A434D8806EA05152A43154DCC
:104FC000A84202D0144DA8421DD14FF67F752A4049
:104FD000CD894FF6FF7606EA05152A434FF6BF75D1
:104FE0002A408D8806EA05152A434FF6FF352B40E7
:104FF0004FF2FF752B400D8A06EA85052B434D8A3B
:1050000006EA85052B43838004838D6885630284CB
:1050100070BD000000000140000401400A4600216C
:10502000018B4FF2FF7319404FF6FF7303EA02231F
:10503000194301837047000070B50022002300244B
:10504000058C4EF6FF7635400584038C8488828B70
:1050500048F6FF752A404FF6FF452A400D884FF667
:10506000FF7606EA05252A434DF6FF752B408D890C
:1050700006EA05352B434D8806EA05352B430A4DD4
:10508000A84202D0094DA84208D14BF6FF752C402A
:105090000D8A4FF6FF7606EA85152C4384808283BD
:1050A0008D680564038470BD000001400004014068
:1050B0000A460021818B4FF2FF7319404FF6FF73B0
:1050C00003EA022319438183704741637047816378
:1050D000704701647047000000220288184B984214
:1050E0000ED0184B98420BD0B0F1804F08D0164B21
:1050F000984205D0154B984202D0154B984204D1E6
:105100004FF68F731A404B881A43124B984207D0C0
:10511000114B984204D04FF6FF431A400B891A43B3
:1051200002804B68C3620B880385054B984202D00E
:10513000044B984201D18B7A038601238382704706
:10514000000001400004014000040040000800404D
:10515000000C0040001000400014004010B540F268
:105160002551344800F008F918B1324800F0BEF972
:105170005FE040F224412F4800F0FEF8002858D0AC
:105180002C4800F0B3F92C48FCF75FFD40BB002130
:105190002948FCF77DFC2848FCF753FDC0F12400AA
:1051A0002649088024212448FCF7C6FD22480068CF
:1051B00040F400202049086021491F48FCF734FCD6
:1051C00001211D48FCF764FC1C480088122830D1DE
:1051D0001C491D48FFF72EF80020FCF719FE28E0B7
:1051E00000211548FCF754FC1348FCF72AFDC0F1D8
:1051F00024001249088024210F48FCF79DFD0E4829
:10520000006820F400200C4908600D490A48FCF7AA
:105210000BFC01210848FCF73BFC084800881228D9
:1052200007D1084908482430FFF704F80020FCF7AC
:10523000EFFD10BD0010014040640240F00100206D
:1052400000003010701202208612022001F4007259
:10525000B2F5007F00D100BFCA430280704721B180
:10526000828942F40052828104E082894DF6FF7304
:105270001A40828170471AB1838A0B43838202E00D
:10528000838A8B438382704710B504463248844238
:1052900008D101211020FEF7B1FC00211020FEF7FB
:1052A000ADFC57E02D48844209D101214804FEF7A6
:1052B00085FC00214FF40030FEF780FC4AE02848CE
:1052C000844209D101218804FEF778FC00214FF4C3
:1052D0008020FEF773FC3DE02248844209D1012181
:1052E000C804FEF76BFC00214FF40020FEF766FCBB
:1052F00030E01D48844209D101210805FEF75EFC1B
:1053000000214FF48010FEF759FC23E01748844237
:1053100008D101212020FEF771FC00212020FEF79A
:105320006DFC17E01248844209D101218807FEF77D
:1053300045FC00214FF08040FEF740FC0AE00D489C
:10534000844207D101214005FEF738FC00216005A9
:10535000FEF734FC10BD0000001001400044004086
:1053600000480040004C0040005000400014014044
:1053700000780040007C004070B502460024002305
:105380000025002040F66A16B14200D100BFC1F3EB
:10539000421501F01F03012606FA03F3012D02D185
:1053A0009689334006E0022D02D1168A334001E08F
:1053B000968A33400C12012606FA04F4168834400B
:1053C00013B10CB1012000E0002070BDF0B5034620
:1053D000002400260025002040F66A17B94200D1BB
:1053E00000BF1846C1F3421401F01F06012707FA57
:1053F00006F5012C01D10C3004E0022C01D1103053
:1054000000E014301AB107682F43076002E0076814
:10541000AF430760F0BD00002DE9FF4705460E468B
:105420000024A14600BFA046B08900B100BF2C8A6D
:1054300024F44054F08804432C82AC8941F20C607F
:105440008443B08831890843718908430443AC819F
:10545000AC8A24F44074B0890443AC826846FEF7F9
:10546000DDFB2048854202D01F48854202D1DDF88D
:105470000C9001E0DDF80890A88900F4004040B1EC
:1054800009EBC90000EB091031684900B0FBF1F7E6
:1054900007E009EBC90000EB091031688900B0FB97
:1054A000F1F76420B7FBF0F004012009642101FB4F
:1054B0001078A88900F4004040B1322000EBC80009
:1054C000B0FBF1F000F00700044308E0322000EBED
:1054D00008106421B0FBF1F000F00F0004432C81B0
:1054E000BDE8FF8700100140001401400146888894
:1054F000C0F30800704700BFFEE7000002F0A8F903
:1055000004462DE094ED000ADFED160A20EE200A95
:10551000154880ED000A94ED010ADFED120A20EE35
:10552000200A80ED010A94ED020ADFED0E0A20EE5A
:10553000200A80ED020A082004F09AFE08B903F060
:105540001DF94FF4FA7005F081F803F00DF94FF4EE
:10555000FA7005F07BF8002004F022FF0349086090
:10556000D0E7000033336542781302202C0200207C
:105570004100080218BF04200A0E18BF40F00100C5
:105580004FF07F4232EA010108BF40F002000128DB
:1055900008BF05207047000010B54FF00E402DEDFC
:1055A000028BB0EE408A18EE104A00EB4400B0F1D6
:1055B000506F4AD84FF0FC40B0EB440F22D2B0EE0F
:1055C000C80AF7EE000A30EEC00AF6EE000A60EEF6
:1055D000208A18EE900A04F04DFD01EE100A14F036
:1055E000004F1DBFDFED2D0A9FED2D0AB1EE411AD0
:1055F000DFED2C0A08BF9FED2C0AF8EE001A21EE11
:10560000218A05E0DFED290A68EE088AB0EE600A1B
:105610009FED271ADFED271A30EE080A48EE811AAF
:105620009FED251A08EEA11ADFED241A48EE811A23
:105630009FED231A08EEA11A68EE281ABDEC028B22
:1056400001EE810A30EE200A10BD4FF0E440B0EBCD
:10565000440F0CD918EE100AFFF78AFF042808BF80
:1056600000F070F9B0EE480ABDEC028B10BD4FF0AF
:105670007F40B0EB440F07D2B0EE480ABDEC028B7E
:10568000BDE8104000F050B90120FAF7C4FFBDECAE
:10569000028BBDE8104000F04DB900000000C9BF0A
:1056A00022AAFDB90000C93F22AAFD39000000006E
:1056B00024FE1C3DC78AD83C1E67383D1B93993D8C
:1056C000AFAA2A3E10EE100A10B510EE901A4FF055
:1056D000684202EB40032DED028BB3F1654F3CBFF6
:1056E00002EB4102B2F1654F7CD200BFC0F3C75359
:1056F000C1F3C7529A1A1B2A09DD10F0004F14BFDC
:105700009FED6E0A9FED6E0ABDEC028B10BD12F18B
:105710001A0F1BDA11F0004F09D010F0004F0CBF28
:105720009FED680A9FED680ABDEC028B10BD80EE0C
:10573000208A18EE100AFFF71BFF042808BF00F0AC
:1057400001F9B0EE480ABDEC028B10BD4200B2EB8D
:10575000410F37D910F0004F19BFDFED5C1A9FEDF4
:105760005C1ADFED5C1A9FED5C1AB0EE602A0A4607
:10577000F1EE400A80F00041B0EE420A10460A1AEB
:105780005200B2F1807F34D2484010F0004FDFED7C
:10579000532A9FED533A1DBFBEEE002A71EEE21A66
:1057A00031EE431AB6EE002A04BF71EEA21A31EEB2
:1057B000031AF0EE402A42EE602A40EE020A82EE20
:1057C000A02A18E011F0004F04BF9FED461AF0EE3A
:1057D000411AD4D010F0004F1CBFDFED431A9FEDEB
:1057E000431A00E026E004BFDFED411A9FED411AA5
:1057F000C5E780EE202A22EE020ADFED3F0ADFED48
:105800003F2ABDEC028B40EE202ADFED3D0A40EE40
:10581000220ADFED3C2A40EE202ADFED3B0A40EE73
:10582000220A22EE000A00EE201A31EE020A30EEC1
:10583000210A10BD4FF07F42B2EB400F28BFB2EB00
:10584000410F05D2BDEC028BBDE8104000F06FB8EF
:1058500040EA01035B0008BF41F0FF410BD0B2EB0F
:10586000400F08BFB2EB410F08D120F0804000EE9E
:10587000100A21F0804100EE901A37E7B2EB400F9A
:1058800012BF5FEA410240F0FF4001F000413FF4E7
:105890002DAF4A0092EA40033FF528AF002AACBF83
:1058A0009FED1A1A9FED1A1A20EE010A60EE810A86
:1058B00010EE100A10EE901A18E70000DB0FC9BFB7
:1058C000DB0FC93FDB0F4940DB0F49C00000C9BFF8
:1058D00022AAFDB90000C93F22AAFD390060ED3EB1
:1058E000C30ACE3700000000000049C022AA7DBADA
:1058F0000000494022AA7D3A2DAD65BD8FB8D53D47
:105900000FB511BE61C84C3EA8AAAABE0000804FC8
:105910000000802F2DED020B019820F00040019037
:105920009DED000B02B0704730EE000A704730EE7C
:10593000200A7047DFED020A80EEA00A70470000DF
:10594000000000009FED020A20EE000A70470000F0
:1059500000000010D0ED000AF4EEC00AF1EE10FADB
:1059600002DD80ED000A0CE0D0ED000AB1EE401A35
:10597000F4EEC10AF1EE10FA03D2F1EE400AC0EDE6
:10598000000A704770B52DED028B8AB005460C46B3
:1059900016460DB104B11EB90AB0BDEC028B70BD44
:1059A00094ED000AB5EEC00AF1EE10FA0DD194EDB7
:1059B000010AB5EEC00AF1EE10FA06D194ED020A22
:1059C000B5EEC00AF1EE10FA7DD09FED600AB0EEA0
:1059D000408A002007900890099004900590069056
:1059E0005B4A07CA01AB07C395ED010AD5ED030A6F
:1059F00020EE200AD5ED000A95ED021A00EEC10A4C
:105A0000F0EE000A20EE200A8DED070A95ED000A5F
:105A1000D5ED010A20EE200AD5ED020A95ED031A14
:105A200000EE810AF0EE000A20EE200A8DED080A51
:105A300095ED000A20EE000AD5ED030A95ED031A54
:105A400000EE810AF7EE000AB0EE001A51EE000AED
:105A5000CDED090A01AB22463146284600F07AF81E
:105A6000D4ED000A60EEA00A94ED011AD4ED011AFB
:105A700041EE210A94ED021AD4ED021A41EE210AF8
:105A8000B0EE600AFBF732F9B0EE408A94ED000AFE
:105A900020EE080A84ED000A94ED010A20EE080ABF
:105AA00084ED010A94ED020A20EE080A84ED020A50
:105AB00094ED010ADDED090A20EE200AD4ED020A78
:105AC0009DED081A00E03EE000EEC10A8DED040AEB
:105AD00094ED020ADDED070A20EE200AD4ED000A5B
